:100000000C945C000C946E000C946E000C946E00CA
:100010000C946E000C946E000C946E000C946E00A8
:100020000C946E000C946E000C946E000C946E0098
:100030000C946E000C946E000C946E000C946E0088
:100040000C9400010C946E000C946E000C946E00E5
:100050000C946E000C946E000C946E000C946E0068
:100060000C946E000C946E00000000080002010069
:100070000003040700000000000000000000000072
:10008000250028002B0000000000240027002A0083
:10009000040404040404040402020202020203032E
:1000A0000303030301020408102040800102040836
:1000B000102001020408102011241FBECFEFD8E049
:1000C000DEBFCDBF21E0A0E0B1E001C01D92AF31A5
:1000D000B207E1F70E944A010C9412040C9400004C
:1000E00090E0FC01EC55FF4F249180579F4FFC019D
:1000F0008491882399F090E0880F991FFC01EA57BA
:10010000FF4FA591B491FC01E458FF4F8591949164
:100110008FB7F894EC91E22BEC938FBF089590E0A9
:10012000FC01E859FF4F2491FC01EC55FF4F34913D
:10013000FC01E057FF4FE491EE23C9F0222339F090
:10014000233001F1A8F4213019F1223029F1F0E037
:10015000EE0FFF1FE458FF4FA591B4918FB7F894AD
:10016000EC91611126C030953E233C938FBF0895DA
:100170002730A9F02830C9F0243049F78091800059
:100180008F7D03C0809180008F7780938000DFCFC8
:1001900084B58F7784BDDBCF84B58F7DFBCF809115
:1001A000B0008F778093B000D2CF8091B0008F7D68
:1001B000F9CF3E2BDACF3FB7F89480911B01909195
:1001C0001C01A0911D01B0911E0126B5A89B05C080
:1001D0002F3F19F00196A11DB11D3FBFBA2FA92FC6
:1001E000982F8827BC01CD01620F711D811D911DC3
:1001F00042E0660F771F881F991F4A95D1F708952F
:100200001F920F920FB60F9211242F933F938F934B
:100210009F93AF93BF938091170190911801A09184
:100220001901B0911A013091160123E0230F2D37E7
:1002300058F50196A11DB11D209316018093170159
:1002400090931801A0931901B0931A0180911B019A
:1002500090911C01A0911D01B0911E010196A11D5C
:10026000B11D80931B0190931C01A0931D01B093BD
:100270001E01BF91AF919F918F913F912F910F9050
:100280000FBE0F901F90189526E8230F0296A11D10
:10029000B11DD2CF789484B5826084BD84B581606D
:1002A00084BD85B5826085BD85B5816085BD809141
:1002B0006E00816080936E001092810080918100B9
:1002C00082608093810080918100816080938100B1
:1002D000809180008160809380008091B100846073
:1002E0008093B1008091B00081608093B0008091D4
:1002F0007A00846080937A0080917A008260809393
:100300007A0080917A00816080937A0080917A00EF
:10031000806880937A001092C10087E00E9470008C
:1003200084E00E94700082E00E94700000E010E013
:10033000C0910801D0910901209709F08BC010925B
:100340000A0110920B0110920C0110920D011092F3
:100350000E0110920F0110921001109211011092D3
:10036000120110921301109214011092150120E055
:1003700030E040E85FE360910001709101018091FD
:100380000201909103010E949B026B017C01DC0140
:10039000CB0188279927A078BF770097A048BF474F
:1003A00071F421E030E0D701C601AF77BB27892B7C
:1003B0008A2B8B2B11F430E020E0232BB9F520E0C1
:1003C00030E0A901C701B6010E940703882371F13B
:1003D00020E030E040EC50E4C701B6010E94460343
:1003E0004B015C0120E030E0A9010E940703882353
:1003F000E9F020E030E0A901C701B6010E9407033F
:1004000087FF0AC020E030E040EC50E4C501B401B1
:100410000E949B024B015C0120E030E040E050E490
:10042000C501B4010E94070387FF5BC080E090E034
:10043000A0E8BFE380930A0190930B01A0930C0105
:10044000B0930D01C0920001D0920101E09202012F
:10045000F09203012196C03D87E0D80708F065C0FF
:10046000D0930901C093080160910A0170910B01BA
:1004700080910C0190910D010E940C0387E00E9475
:100480008F0060910E0170910F0180911001909189
:1004900011010E940C0384E00E948F006091120100
:1004A0007091130180911401909115010E940C0329
:1004B00082E00E948F000E94DB006B017C010E94A1
:1004C000DB006C197D098E099F09683E7340810528
:1004D0009105A8F30115110509F42ACF0E94000027
:1004E00027CF20E030E040E850E4C501B4010E948D
:1004F000070387FF0DC080E090E0A0E8BFE3809392
:100500000E0190930F01A0931001B09311019ACFA7
:1005100080E090E0A0E8BFE3809312019093130184
:10052000A0931401B09315018DCF10920901109280
:1005300008019ACF5058BB27AA270E94B2020C94F8
:10054000D8030E94CA0338F00E94D10320F039F486
:100550009F3F19F426F40C94C7030EF4E095E7FBD3
:100560000C94B303E92F0E94E90358F3BA1762070A
:1005700073078407950720F079F4A6F50C940B0413
:100580000EF4E0950B2EBA2FA02D0B01B9019001AE
:100590000C01CA01A0011124FF27591B99F0593FF2
:1005A00050F4503E68F11A16F040A22F232F342F3A
:1005B0004427585FF3CF469537952795A795F04088
:1005C0005395C9F77EF41F16BA0B620B730B840B9D
:1005D000BAF09150A1F0FF0FBB1F661F771F881F55
:1005E000C2F70EC0BA0F621F731F841F48F48795AD
:1005F00077956795B795F7959E3F08F0B0CF93959F
:10060000880F08F09927EE0F9795879508950E9417
:100610008F0308F481E008950E94F10388F09F574A
:1006200098F0B92F9927B751B0F0E1F0660F771F16
:10063000881F991F1AF0BA95C9F714C0B13091F00C
:100640000E940B04B1E008950C940B04672F782FDF
:100650008827B85F39F0B93FCCF3869577956795D1
:10066000B395D9F73EF490958095709561957F4F3D
:100670008F4F9F4F08950E94CA0320F019F00E94E7
:10068000D10350F40C94C7030C940C04E92F0E947E
:10069000E90388F35523B1F3E7FB62177307840777
:1006A0009507A8F189F3E92FFF2788232AF03197CE
:1006B000660F771F881FDAF7952F5527442332F0EE
:1006C00091505040220F331F441FD2F7BB27E91B24
:1006D000F50B621B730B840BB109B1F222F4620FAC
:1006E000731F841FB11D31972AF0660F771F881F73
:1006F000BB1FEFCF9150504062F041F0882332F0A1
:10070000660F771F881F91505040C1F793950C9446
:10071000B9038695779567959F5FD9F7F7CF990FBE
:100720000008550FAA0BE0E8FEEF16161706E807BB
:10073000F907C0F012161306E407F50798F0621BDC
:10074000730B840B950B39F40A2661F0232B242BB1
:10075000252B21F408950A2609F4A140A6958FEFD0
:10076000811D811D089597F99F6780E870E060E022
:1007700008959F3F31F0915020F4879577956795C4
:10078000B795880F911D9695879597F908959FEFD6
:1007900080EC089500240A94161617061806090618
:1007A000089500240A9412161306140605060895E7
:1007B000092E0394000C11F4882352F0BB0F40F46F
:1007C000BF2B11F460FF04C06F5F7F4F8F4F9F4FAF
:1007D000089557FD9058440F551F59F05F3F71F031
:1007E0004795880F97FB991F61F09F3F79F0879598
:1007F0000895121613061406551FF2CF4695F1DF21
:1008000008C0161617061806991FF1CF86957105B0
:10081000610508940895E894BB2766277727CB01E4
:0808200097F90895F894FFCF49
:00000001FF
