:100000005CC0000081C000007FC000007DC0000017
:100010007BC0000079C0000077C0000075C0000000
:1000200073C0000071C000006FC000006DC0000010
:100030006BC00000CBC2000067C0000065C00000BC
:10004000C0C5000061C00000FDC700000C9454084A
:100050005BC0000059C0000057C0000055C0000040
:1000600053C0000051C00000000000080002010061
:100070000003040700000000000000000102040863
:100080001020408001020408102001020408102002
:10009000040404040404040402020202020203032E
:1000A0000303030300000000250028002B000000CC
:1000B0000000240027002A00790811241FBECFEF7A
:1000C000D8E0DEBFCDBF11E0A0E0B1E0EAEFF1E1A2
:1000D00002C005900D92AC32B107D9F722E0ACE234
:1000E000B1E001C01D92AD30B207E1F710E0CDE5FF
:1000F000D0E004C02197FE010E94F508CC35D1075D
:10010000C9F7C6D20C94FB087BCF611101C007C6AA
:100110006130E9F362E0FBCF662311F061E03BC69A
:1001200060E0FDCFCF92DF92EF92FF926B017C01F6
:100130009F7720E030E040E859E559D387FF26C09B
:1001400020E030E040E05FE3C701B601D3D487FD93
:100150000CC020E030E040E05FE3C701B601D0D240
:10016000FF90EF90DF90CF90AFC320E030E040E011
:100170005FEBC701B601BED418167CF420E030E076
:10018000A901C701B601BAD46B017C01C701B60150
:10019000FF90EF90DF90CF90089520E030E040E0B6
:1001A0005FE3C701B601ABD2FF90EF90DF90CF9035
:1001B0000BC38F929F92AF92BF92CF92DF92EF923A
:1001C000FF920F931F93CF93DF9320910001309103
:1001D000010140910201509103016091EF01709182
:1001E000F0018091F1019091F2018AD26093EF01C8
:1001F0007093F0018093F1019093F2012091080136
:100200003091090140910A0150910B0178D24B01C4
:100210005C01CCD1882309F4A1C0C090FF01D0902B
:100220000002E0900102F090020220E030E040E0A5
:1002300050E4C701B601DBD287FD9DC020E030E06D
:1002400040E850E4C701B601D2D287FDBCC010E03F
:1002500000E070E060E0C1E0D0E0072E000C880B09
:10026000990BF7D220910C0130910D0140910E01B4
:1002700050910F0143D456DF6B017C0120E030E048
:1002800040E853E4B4D26FEF87FF0CC020E030E0C9
:10029000A901C701B6012ED460E087FD03C0C701E4
:1002A000B601A9D287E038DFB801110F880B990B8E
:1002B000D0D2209110013091110140911201509142
:1002C00013011CD42FDF6B017C0120E030E040E8FB
:1002D00053E48DD26FEF87FF0CC020E030E0A9011E
:1002E000C701B60107D460E087FD03C0C701B601AE
:1002F00082D284E011DFBE01DD0F880B990BA9D2F9
:10030000209114013091150140911601509117016F
:10031000F5D308DF6B017C0120E030E040E853E4D6
:1003200066D26FEF87FF0CC020E030E0A901C70163
:10033000B601E0D360E087FD03C0C701B6015BD220
:1003400082E0DF91CF911F910F91FF90EF90DF90AE
:10035000CF90BF90AF909F908F90DECEC501B4013B
:10036000E2D081115ACF20E030E0A901C501B401EB
:100370003ED2811107C010E000E061E070E0D0E003
:10038000C0E06BCF20E030E040EC50E4C501B401A8
:10039000B5D26B017C0120E030E0A90128D288238E
:1003A00051F320E030E0A901C501B40120D287FF5C
:1003B0003CCF20E030E040EC50E4C701B601A0D1D2
:1003C0006B017C0132CF01E010E070E060E0D7CF3C
:1003D000CF92DF92EF92FF921F93CF93DF9384E04F
:1003E00090E06AD0C7EDD1E08091040190910501C1
:1003F000A0910601B0910701888F998FAA8FBB8FBA
:10040000188AC12CD12C7601C394C98ADA8AEB8A66
:10041000FC8A61E087E079DE11E01D8B1886C986D1
:10042000DA86EB86FC8661E084E06FDE1D87188249
:10043000C982DA82EB82FC8261E082E066DE1D83A3
:10044000DF91CF911F91FF90EF90DF90CF900895B3
:100450008091E701811103C081E08093E7018091E1
:10046000DF01811103C081E08093DF018091D7011A
:10047000811103C081E08093D701089560E070E0AE
:1004800080E89FE7089560E070E080E89FE70895C6
:1004900060E070E080E89FEF089560E070E080E841
:1004A0009FEF089560E070E080EC9FEF089560E0BA
:1004B00070E080EC9FEF0895F5DF6093FF0170938B
:1004C00000028093010290930202F1DF6093F30136
:1004D0007093F4018093F5019093F601CFDF609360
:1004E000FB017093FC018093FD019093FE01CBDF33
:1004F0006093F7017093F8018093F9019093FA01EA
:10050000C7DF609303027093040280930502909307
:100510000602C3DF6093070270930802809309020A
:1005200090930A020895CF92DF92EF92FF92CF93B9
:100530006B017C01AC019B016091FB017091FC019E
:100540008091FD019091FE0152D1C1E0882369F0B4
:10055000A701960160910302709104028091050247
:100560009091060244D18111C0E08C2FCF91FF9071
:10057000EF90DF90CF9008950F931F938B019C0114
:100580000027112720783F770115110520483F47A4
:1005900049F4AB01BC016F77772781E0452B462BEF
:1005A000472B09F480E01F910F910895E5CF26E0D5
:1005B00030E040E855E260E070E090E080E000C0AC
:1005C000892B19F48AE391E0DDC408951F920F92FC
:1005D0000FB60F9211242F933F934F935F936F9316
:1005E0007F938F939F93AF93BF93EF93FF938EEE81
:1005F00095E8909385008093840032D0FF91EF912D
:10060000BF91AF919F918F917F916F915F914F912A
:100610003F912F910F900FBE0F901F9018958EEE67
:1006200095E89093850080938400AFE6B0E08C91CC
:100630008E7F8C93E0E8F0E080818C7F8083E1E81E
:10064000F0E08081877E80838081856080838081E7
:100650008D7F80838C9181608C93089581E00895D3
:1006600080912E0191E0980F90932E01882349F0FC
:1006700021E030E03093300120932F0180932E0150
:100680000895789496DDF89480912E018150F6CFEC
:10069000CF93DF9310920C0210920B02DCD287DF13
:1006A000C0911801D09119011982188291DEF89435
:1006B000B6DF2881398181E0232B09F080E0809327
:1006C0000B027894789480910B02811107C0C0DEF0
:1006D000F89490E080E0DF91CF91089528813981EE
:1006E00081E0232B09F480E080930C0290910C02AE
:1006F00081E0911180E080930B02B0DFE4CF50588D
:10070000BB27AA270ED0A5C196D130F09BD120F0EF
:1007100031F49F3F11F41EF48BC10EF4E095E7FB1A
:1007200058C1E92FA7D180F3BA176207730784076E
:10073000950718F071F49EF5D6C10EF4E0950B2ED6
:10074000BA2FA02D0B01B90190010C01CA01A00123
:100750001124FF27591B99F0593F50F4503E68F17E
:100760001A16F040A22F232F342F4427585FF3CFBF
:10077000469537952795A795F0405395C9F77EF490
:100780001F16BA0B620B730B840BBAF09150A1F0D9
:10079000FF0FBB1F661F771F881FC2F70EC0BA0F5F
:1007A000621F731F841F48F4879577956795B795E7
:1007B000F7959E3F08F0B3CF9395880F08F09927DF
:1007C000EE0F97958795089577D180F09F3740F485
:1007D00091110EF489C160E070E080E89FE3089514
:1007E00026F01B16611D711D811DF9C013C1CDD0EE
:1007F00008F481E0089546D188F09F5790F0B92F12
:100800009927B751A0F0D1F0660F771F881F991F65
:100810001AF0BA95C9F712C0B13081F064D1B1E0D5
:10082000089561C1672F782F8827B85F39F0B93FE5
:10083000CCF3869577956795B395D9F73EF4909567
:100840008095709561957F4F8F4F9F4F0895E894E5
:1008500009C097FB3EF490958095709561957F4F08
:100860008F4F9F4F9923A9F0F92F96E9BB279395B6
:10087000F695879577956795B795F111F8CFFAF4C6
:10088000BB0F11F460FF1BC06F5F7F4F8F4F9F4FF7
:1008900016C0882311F096E911C0772321F09EE855
:1008A000872F762F05C0662371F096E8862F70E0BB
:1008B00060E02AF09A95660F771F881FDAF7880F95
:1008C0009695879597F90895F7D080F09F3740F473
:1008D00091110EF009C160E070E080E89FEB08958F
:1008E00026F41B16611D711D811D79C093C0A3D014
:1008F00018F011F0A7D038F49BC0F6C0E92FBAD099
:10090000B0F35523C9F3E7FB621773078407950714
:10091000A8F199F3E92FFF2788232AF03197660F72
:10092000771F881FDAF7952F5527442332F091500F
:100930005040220F331F441FD2F7BB27E91BF50B92
:10094000621B730B840BB109C1F222F4620F731F97
:10095000841FB11D31972AF0660F771F881FBB1FB8
:10096000EFCF915050405AF041F0882332F0660F9B
:10097000771F881F91505040C1F793954BC08695C3
:10098000779567959F5FD9F7F8CF990F0008550FB6
:10099000AA0BE0E8FEEF16161706E807F907C0F005
:1009A00012161306E407F50798F0621B730B840B0D
:1009B000950B39F40A2661F0232B242B252B21F4E7
:1009C00008950A2609F4A140A6958FEF811D811D87
:1009D000089597F99F6780E870E060E008958823A4
:1009E00071F4772321F09850872B762F07C0662368
:1009F00011F499270DC09051862B70E060E02AF029
:100A00009A95660F771F881FDAF7880F9695879556
:100A100097F908959F3F31F0915020F4879577958D
:100A20006795B795880F911D9695879597F90895C5
:100A30009FEF80EC089500240A94161617061806F6
:100A40000906089500240A941216130614060506D2
:100A50000895092E0394000C11F4882352F0BB0F63
:100A600040F4BF2B11F460FF04C06F5F7F4F8F4FC6
:100A70009F4F089557FD9058440F551F59F05F3F01
:100A800071F04795880F97FB991F61F09F3F79F0B0
:100A900087950895121613061406551FF2CF469532
:100AA000F1DF08C0161617061806991FF1CF8695B4
:100AB0007105610508940895E5DFA0F0BEE7B91758
:100AC00088F4BB279F3860F41616B11D672F782F66
:100AD0008827985FF7CF869577956795B11D939591
:100AE0009639C8F30895E894BB2766277727CB018A
:100AF00097F908954ADF08F48FEF08950BD0A9CF36
:100B00009ADF28F09FDF18F0952309F062CF90CF8D
:100B10001124EACFAFDFA0F3959FD1F3950F50E0FA
:100B2000551F629FF001729FBB27F00DB11D639F9F
:100B3000AA27F00DB11DAA1F649F6627B00DA11D45
:100B4000661F829F2227B00DA11D621F739FB00DEB
:100B5000A11D621F839FA00D611D221F749F33275B
:100B6000A00D611D231F849F600D211D822F762FF4
:100B70006A2F11249F5750408AF0E1F088234AF0F1
:100B8000EE0FFF1FBB1F661F771F881F915050403D
:100B9000A9F79E3F510570F01CCFA6CF5F3FECF345
:100BA000983EDCF3869577956795B795F795E79529
:100BB0009F5FC1F7FE2B880F911D9695879597F93A
:100BC00008951F920F920FB60F9211242F933F9307
:100BD0008F939F93AF93BF93809132019091330194
:100BE000A0913401B09135013091310123E0230F00
:100BF0002D3758F50196A11DB11D20933101809329
:100C0000320190933301A0933401B0933501809168
:100C1000360190913701A0913801B09139010196C8
:100C2000A11DB11D8093360190933701A093380127
:100C3000B0933901BF91AF919F918F913F912F91C7
:100C40000F900FBE0F901F90189526E8230F029665
:100C5000A11DB11DD2CF789484B5826084BD84B5C6
:100C6000816084BD85B5826085BD85B5816085BDA7
:100C7000EEE6F0E0808181608083E1E8F0E01082C0
:100C8000808182608083808181608083E0E8F0E001
:100C9000808181608083E1EBF0E0808184608083EB
:100CA000E0EBF0E0808181608083EAE7F0E0808122
:100CB0008460808380818260808380818160808382
:100CC0008081806880831092C1000895833081F014
:100CD00028F4813099F08230A9F008958730A9F086
:100CE0008830C9F08430B1F4809180008F7D03C0DA
:100CF000809180008F7780938000089584B58F77EE
:100D000084BD089584B58F7DFBCF8091B0008F772F
:100D10008093B00008958091B0008F7DF9CFCF937C
:100D2000DF9390E0FC01E458FF4F249180579F4FE0
:100D3000FC0184918823C9F090E0880F991FFC0181
:100D4000E255FF4FA591B491FC01EC55FF4FC591C1
:100D5000D49161110DC09FB7F8948C912095822396
:100D60008C938881282328839FBFDF91CF9108959A
:100D7000623051F49FB7F8943C91822F8095832381
:100D80008C93E8812E2BEFCF8FB7F894EC912E2B1C
:100D90002C938FBFEACF1F93CF93DF93282F30E0A0
:100DA000F901E859FF4F8491F901E458FF4FD491BC
:100DB000F901E057FF4FC491CC23A1F0162F811108
:100DC00085DFEC2FF0E0EE0FFF1FEC55FF4FA591F4
:100DD000B4918FB7F894EC91111108C0D095DE232F
:100DE000DC938FBFDF91CF911F910895DE2BF8CF59
:100DF000FC01918D228D892F90E0805C9F4F821B9A
:100E000091098F7399270895FC01918D828D981710
:100E100031F0828DE80FF11D858D90E008958FEF00
:100E20009FEF0895FC01918D828D981761F0A28D3E
:100E3000AE0FBF2FB11D5D968C91928D9F5F9F73FA
:100E4000928F90E008958FEF9FEF0895FC01538DEE
:100E5000448D252F30E0842F90E0821B930B541794
:100E600010F0CF96089501970895FC01A48DA80F66
:100E7000B92FB11DA35ABF4F2C91848D90E00196DC
:100E80008F739927848FA689B7892C93A089B189FC
:100E90008C91837080648C93938D848D981306C09D
:100EA0000288F389E02D80818F7D80830895CF9320
:100EB000DF93EC01888D8823B1F0AA89BB89E8898A
:100EC000F9898C9185FD03C0808186FD0CC00FB629
:100ED00007FCF7CF8C9185FFF2CF808185FFEDCFA6
:100EE000CE01C3DFEACFDF91CF910895EF92FF9259
:100EF0000F931F93CF93DF93EC0181E0888F9B8D3D
:100F00008C8D98131AC0E889F989808185FF15C0F6
:100F10009FB7F894EE89FF896083E889F989808119
:100F20008370806480839FBF81E090E0DF91CF91E8
:100F30001F910F91FF90EF900895F62E0B8D10E00A
:100F40000F5F1F4F0F731127E02E8C8D8E110BC07A
:100F50000FB607FCFACFE889F989808185FFF5CFC4
:100F6000CE0183DFF2CFEB8DEC0FFD2FF11DE35AA5
:100F7000FF4FF0829FB7F8940B8FEA89FB8980813D
:100F80008062D0CFCF92DF92EF92FF921F93CF93E8
:100F9000DF93EC016A017B01122FE889F98982E075
:100FA0008083C11481EED806E104F10499F060E079
:100FB00079E08DE390E0A7019601F5D02150310949
:100FC000410951095695479537952795211580E197
:100FD000380790F0E889F989108260E874E88EE1BA
:100FE00090E0A7019601DFD0215031094109510954
:100FF0005695479537952795EC85FD853083EE8589
:10100000FF852083188EEC89FD891083EA89FB898E
:10101000808180618083EA89FB8980818860808308
:10102000EA89FB89808180688083EA89FB898081E5
:101030008F7D8083DF91CF911F91FF90EF90DF90A4
:10104000CF9008951F920F920FB60F9211242F93F5
:101050008F939F93EF93FF93E0914A01F0914B019F
:101060008081E0915001F091510182FD1BC090817F
:10107000809153018F5F8F7320915401821741F04B
:10108000E0915301F0E0E65CFE4F958F80935301B1
:10109000FF91EF919F918F912F910F900FBE0F9025
:1010A0001F9018958081F4CF1F920F920FB60F9268
:1010B00011242F933F934F935F936F937F938F935D
:1010C0009F93AF93BF93EF93FF938AE391E0CDDEBD
:1010D000FF91EF91BF91AF919F918F917F916F9110
:1010E0005F914F913F912F910F900FBE0F901F90E6
:1010F0001895EAE3F1E01382128288EE93E0A0E013
:10110000B0E084839583A683B7838EE191E09183D9
:10111000808385EC90E09587848784EC90E09787C6
:10112000868780EC90E0918B808B81EC90E0938BB4
:10113000828B82EC90E0958B848B86EC90E0978B91
:10114000868B118E128E138E148E0895AF92BF92DD
:10115000CF92DF92EF92FF920F931F93CF93DF9383
:101160006C017B018B01040F151FEB015E01AE18B2
:10117000BF08C017D10759F06991D601ED91FC91D4
:101180000190F081E02DC6010995892B79F7C50101
:10119000DF91CF911F910F91FF90EF90DF90CF9053
:1011A000BF90AF900895A1E21A2EAA1BBB1BFD01B0
:1011B0000DC0AA1FBB1FEE1FFF1FA217B307E40736
:1011C000F50720F0A21BB30BE40BF50B661F771F8E
:1011D000881F991F1A9469F760957095809590956E
:1011E0009B01AC01BD01CF010895EE0FFF1F0590DB
:0A11F000F491E02D0994F894FFCF6C
:1011FA000000803F000000000000000000004C4298
:10120A0000004C4200004C422C010000000076070E
:0C121A00A60826075707F806120704076D
:00000001FF
