:100000005CC0000081C000007FC000007DC0000017
:100010007BC0000079C0000077C0000075C0000000
:1000200073C0000071C000006FC000006DC0000010
:100030006BC0000016C3000067C0000065C0000070
:100040000BC6000061C000000C946D080C949F0862
:100050005BC0000059C0000057C0000055C0000040
:1000600053C0000051C00000000000080002010061
:100070000003040700000000000000000102040863
:100080001020408001020408102001020408102002
:10009000040404040404040402020202020203032E
:1000A0000303030300000000250028002B000000CC
:1000B0000000240027002A00C40811241FBECFEF2F
:1000C000D8E0DEBFCDBF11E0A0E0B1E0E0E9F2E1B1
:1000D00002C005900D92A633B107D9F722E0A6E33E
:1000E000B1E001C01D92AF3AB207E1F710E0CDE5F3
:1000F000D0E004C02197FE010E944009CC35D10711
:10010000C9F711D30C9446097BCF611101C052C6C7
:100110006130E9F362E0FBCF662311F061E086C64F
:1001200060E0FDCFCF92DF92EF92FF926B017C01F6
:100130009F7720E030E040E859E5A4D387FF26C050
:1001400020E030E040E05FE3C701B6011ED587FD47
:100150000CC020E030E040E05FE3C701B6011BD3F4
:10016000FF90EF90DF90CF90FAC320E030E040E0C6
:100170005FEBC701B60109D518167CF420E030E02A
:10018000A901C701B60105D56B017C01C701B60104
:10019000FF90EF90DF90CF90089520E030E040E0B6
:1001A0005FE3C701B601F6D2FF90EF90DF90CF90EA
:1001B00056C38F929F92AF92BF92CF92DF92EF92EF
:1001C000FF920F931F93CF93DF93E091CA01F091B9
:1001D000CB01209100013091010140910201509129
:1001E00003016081718182819381D4D24B015C01D2
:1001F00028D2882309F4DDC0C090A102D090A202C9
:10020000E090A302F090A40220E030E040EA50E445
:10021000C701B60137D387FDD9C020E030E040E206
:1002200051E4C701B6012ED387FDF8C010E000E00D
:1002300070E060E0C1E0D0E0072E000C880B990B65
:1002400053D3209104013091050140910601509152
:1002500007019FD467DF6B017C0120E030E040E8BC
:1002600053E410D36FEF87FF0CC020E030E0A9010A
:10027000C701B6018AD460E087FD03C0C701B6019B
:1002800005D387E049DFB801110F880B990B2CD3F8
:10029000209108013091090140910A0150910B0110
:1002A00078D440DF6B017C0120E030E040E853E48B
:1002B000E9D26FEF87FF0CC020E030E0A901C70151
:1002C000B60163D460E087FD03C0C701B601DED28A
:1002D00084E022DFBE01DD0F880B990B05D320914E
:1002E0000C0130910D0140910E0150910F0151D43C
:1002F00019DF6B017C0120E030E040E853E4C2D21A
:100300006FEF87FF0CC020E030E0A901C701B60104
:100310003CD460E087FD03C0C701B601B7D282E0DC
:10032000FBDE6091BC017091BD018091BE01909196
:10033000BF016F5F7F4F8F4F9F4F6093BC017093E2
:10034000BD018093BE019093BF01C091CA01D091BD
:10035000CB01C8D29B01AC016091C0017091C10179
:100360008091C2019091C30114D4688379838A83F8
:100370009B838091C4019091C501A091C601B09169
:10038000C7010196A11DB11D8093C4019093C501C1
:10039000A093C601B093C701DF91CF911F910F9138
:1003A000FF90EF90DF90CF90BF90AF909F908F9095
:1003B0000895C501B40102D181111ECF20E030E0C3
:1003C000A901C501B4015ED2811107C010E000E0AF
:1003D00061E070E0D0E0C0E02FCF20E030E040E707
:1003E00051E4C501B401D5D26B017C0120E030E0BD
:1003F000A90148D2882351F320E030E0A901C501CA
:10040000B40140D287FF00CF20E030E040E751E464
:10041000C701B601C0D16B017C01F6CE01E010E04E
:1004200070E060E0D7CFCF92DF92EF92FF920F9310
:100430001F93CF93DF9384E090E089D0E6E3F1E06F
:1004400088EC91E095838483CAECD1E0D7AFC6AF46
:1004500000EC11E0138B028BF0939F01E0939E015F
:10046000F383E28321E030E0DC012D933C9380E1D3
:1004700091E0918780878CEC91E0998388834DECA3
:100480005CEC6CE47EE3F801408351836283738308
:10049000CDE7D2E0188AC12CD12C7601C394C98A49
:1004A000DA8AEB8AFC8A61E087E02FDE11E01D8B9F
:1004B0001886C986DA86EB86FC8661E084E025DE54
:1004C0001D871882C982DA82EB82FC8261E082E0B9
:1004D0001CDE1D83DF91CF911F910F91FF90EF9054
:1004E000DF90CF90089580918D02811103C081E04B
:1004F00080938D0280918502811103C081E08093F9
:10050000850280917D02811103C081E080937D028C
:10051000089560E070E080E89FE7089560E070E093
:1005200080E89FE7089560E070E080E89FEF08951D
:1005300060E070E080E89FEF089560E070E080EC9C
:100540009FEF089560E070E080EC9FEF0895F5DF85
:100550006093A1027093A2028093A3029093A402DD
:10056000F1DF6093950270939602809397029093C7
:100570009802CFDF60939D0270939E0280939F024A
:100580009093A002CBDF6093990270939A028093BC
:100590009B0290939C02C7DF6093A5027093A60212
:1005A0008093A7029093A802C3DF6093A90270937F
:1005B000AA028093AB029093AC020895CF92DF928F
:1005C000EF92FF92CF936B017C01AC019B01609194
:1005D0009D0270919E0280919F029091A00252D143
:1005E000C1E0882369F0A70196016091A50270918E
:1005F000A6028091A7029091A80244D18111C0E087
:100600008C2FCF91FF90EF90DF90CF9008950F93B4
:100610001F938B019C010027112720783F7701153C
:10062000110520483F4749F4AB01BC016F7777279C
:1006300081E0452B462B472B09F480E01F910F9159
:100640000895E5CF26E030E040E855E260E070E054
:1006500090E080E000C0892B19F480EE91E0DDC4C9
:1006600008951F920F920FB60F9211242F933F936C
:100670004F935F936F937F938F939F93AF93BF93AA
:10068000EF93FF938BEC93EF90938500809384001E
:1006900032D0FF91EF91BF91AF919F918F917F9158
:1006A0006F915F914F913F912F910F900FBE0F90DF
:1006B0001F9018958BEC93EF9093850080938400A6
:1006C000AFE6B0E08C918E7F8C93E0E8F0E0808123
:1006D0008C7F8083E1E8F0E08081877E8083808169
:1006E0008560808380818D7F80838C9181608C93F5
:1006F000089581E008958091D40191E0980F90933E
:10070000D401882349F021E030E03093D6012093D2
:10071000D5018093D401089578944BDDF8948091AD
:10072000D4018150F6CFCF93DF931092AE02109296
:10073000AD02DCD287DFC0912201D0912301198262
:10074000188271DEF894B6DF81E028813981232B8D
:1007500009F080E08093AD02789478948091AD02A6
:10076000811107C0C0DEF89490E080E0DF91CF9166
:10077000089581E028813981232B09F480E080935A
:10078000AE029091AE0281E0911180E08093AD02C3
:10079000B0DFE4CF5058BB27AA270ED0A5C196D111
:1007A00030F09BD120F031F49F3F11F41EF48BC147
:1007B0000EF4E095E7FB58C1E92FA7D180F3BA17F3
:1007C000620773078407950718F071F49EF5D6C188
:1007D0000EF4E0950B2EBA2FA02D0B01B90190015C
:1007E0000C01CA01A0011124FF27591B99F0593FA0
:1007F00050F4503E68F11A16F040A22F232F342FE8
:100800004427585FF3CF469537952795A795F04035
:100810005395C9F77EF41F16BA0B620B730B840B4A
:10082000BAF09150A1F0FF0FBB1F661F771F881F02
:10083000C2F70EC0BA0F621F731F841F48F487955A
:1008400077956795B795F7959E3F08F0B3CF939549
:10085000880F08F09927EE0F97958795089577D11F
:1008600080F09F3740F491110EF489C160E070E090
:1008700080E89FE3089526F01B16611D711D811D00
:10088000F9C013C1CDD008F481E0089546D188F0B5
:100890009F5790F0B92F9927B751A0F0D1F0660F6C
:1008A000771F881F991F1AF0BA95C9F712C0B13087
:1008B00081F064D1B1E0089561C1672F782F882756
:1008C000B85F39F0B93FCCF3869577956795B395C6
:1008D000D9F73EF490958095709561957F4F8F4F35
:1008E0009F4F0895E89409C097FB3EF4909580953A
:1008F000709561957F4F8F4F9F4F9923A9F0F92FE6
:1009000096E9BB279395F695879577956795B79563
:10091000F111F8CFFAF4BB0F11F460FF1BC06F5F49
:100920007F4F8F4F9F4F16C0882311F096E911C05B
:10093000772321F09EE8872F762F05C0662371F07C
:1009400096E8862F70E060E02AF09A95660F771F90
:10095000881FDAF7880F9695879597F90895F7D04D
:1009600080F09F3740F491110EF009C160E070E013
:1009700080E89FEB089526F41B16611D711D811DF3
:1009800079C093C0A3D018F011F0A7D038F49BC061
:10099000F6C0E92FBAD0B0F35523C9F3E7FB6217CD
:1009A000730784079507A8F199F3E92FFF27882398
:1009B0002AF03197660F771F881FDAF7952F552792
:1009C000442332F091505040220F331F441FD2F77E
:1009D000BB27E91BF50B621B730B840BB109C1F23A
:1009E00022F4620F731F841FB11D31972AF0660F26
:1009F000771F881FBB1FEFCF915050405AF041F036
:100A0000882332F0660F771F881F91505040C1F73E
:100A100093954BC08695779567959F5FD9F7F8CFEB
:100A2000990F0008550FAA0BE0E8FEEF16161706FF
:100A3000E807F907C0F012161306E407F50798F067
:100A4000621B730B840B950B39F40A2661F0232B80
:100A5000242B252B21F408950A2609F4A140A695FC
:100A60008FEF811D811D089597F99F6780E870E0E1
:100A700060E00895882371F4772321F09850872B44
:100A8000762F07C0662311F499270DC09051862B4D
:100A900070E060E02AF09A95660F771F881FDAF7FA
:100AA000880F9695879597F908959F3F31F091505B
:100AB00020F4879577956795B795880F911D969542
:100AC000879597F908959FEF80EC089500240A9484
:100AD0001616170618060906089500240A94121619
:100AE0001306140605060895092E0394000C11F44C
:100AF000882352F0BB0F40F4BF2B11F460FF04C0F9
:100B00006F5F7F4F8F4F9F4F089557FD9058440F51
:100B1000551F59F05F3F71F04795880F97FB991F5C
:100B200061F09F3F79F08795089512161306140619
:100B3000551FF2CF4695F1DF08C0161617061806A6
:100B4000991FF1CF86957105610508940895E5DF39
:100B5000A0F0BEE7B91788F4BB279F3860F41616DB
:100B6000B11D672F782F8827985FF7CF86957795E7
:100B70006795B11D93959639C8F30895E894BB27FE
:100B800066277727CB0197F908954ADF08F48FEF9E
:100B900008950BD0A9CF9ADF28F09FDF18F0952396
:100BA00009F062CF90CF1124EACFAFDFA0F3959F79
:100BB000D1F3950F50E0551F629FF001729FBB2744
:100BC000F00DB11D639FAA27F00DB11DAA1F649FF0
:100BD0006627B00DA11D661F829F2227B00DA11DA3
:100BE000621F739FB00DA11D621F839FA00D611D29
:100BF000221F749F3327A00D611D231F849F600D4A
:100C0000211D822F762F6A2F11249F5750408AF082
:100C1000E1F088234AF0EE0FFF1FBB1F661F771F0E
:100C2000881F91505040A9F79E3F510570F01CCF8E
:100C3000A6CF5F3FECF3983EDCF3869577956795FA
:100C4000B795F795E7959F5FC1F7FE2B880F911D2C
:100C50009695879597F908951F920F920FB60F9268
:100C600011242F933F938F939F93AF93BF938091C2
:100C7000D8019091D901A091DA01B091DB013091B6
:100C8000D70123E0230F2D3758F50196A11DB11D83
:100C90002093D7018093D8019093D901A093DA01D2
:100CA000B093DB018091DC019091DD01A091DE0128
:100CB000B091DF010196A11DB11D8093DC019093DD
:100CC000DD01A093DE01B093DF01BF91AF919F9151
:100CD0008F913F912F910F900FBE0F901F901895FD
:100CE00026E8230F0296A11DB11DD2CF789484B5BA
:100CF000826084BD84B5816084BD85B5826085BD18
:100D000085B5816085BDEEE6F0E0808181608083FD
:100D1000E1E8F0E0108280818260808380818160E0
:100D20008083E0E8F0E0808181608083E1EBF0E0A7
:100D3000808184608083E0EBF0E08081816080834B
:100D4000EAE7F0E080818460808380818260808334
:100D50008081816080838081806880831092C1005F
:100D60000895833081F028F4813099F08230A9F021
:100D700008958730A9F08830C9F08430B1F48091AB
:100D800080008F7D03C0809180008F7780938000EA
:100D9000089584B58F7784BD089584B58F7DFBCF8A
:100DA0008091B0008F778093B00008958091B0005B
:100DB0008F7DF9CFCF93DF9390E0FC01E458FF4F94
:100DC000249180579F4FFC0184918823C9F090E0C3
:100DD000880F991FFC01E255FF4FA591B491FC01CA
:100DE000EC55FF4FC591D49161110DC09FB7F89498
:100DF0008C91209582238C938881282328839FBF00
:100E0000DF91CF910895623051F49FB7F8943C91EF
:100E1000822F809583238C93E8812E2BEFCF8FB781
:100E2000F894EC912E2B2C938FBFEACF1F93CF9386
:100E3000DF93282F30E0F901E859FF4F8491F90141
:100E4000E458FF4FD491F901E057FF4FC491CC23F0
:100E5000A1F0162F811185DFEC2FF0E0EE0FFF1FC0
:100E6000EC55FF4FA591B4918FB7F894EC91111107
:100E700008C0D095DE23DC938FBFDF91CF911F9107
:100E80000895DE2BF8CFFC01918D228D892F90E003
:100E9000805C9F4F821B91098F7399270895FC01F5
:100EA000918D828D981731F0828DE80FF11D858D1F
:100EB00090E008958FEF9FEF0895FC01918D828D52
:100EC000981761F0A28DAE0FBF2FB11D5D968C916A
:100ED000928D9F5F9F73928F90E008958FEF9FEFA9
:100EE0000895FC01538D448D252F30E0842F90E030
:100EF000821B930B541710F0CF9608950197089515
:100F0000FC01A48DA80FB92FB11DA35ABF4F2C917E
:100F1000848D90E001968F739927848FA689B78975
:100F20002C93A089B1898C91837080648C93938D6C
:100F3000848D981306C00288F389E02D80818F7D0F
:100F400080830895CF93DF93EC01888D8823B1F0DF
:100F5000AA89BB89E889F9898C9185FD03C08081C4
:100F600086FD0CC00FB607FCF7CF8C9185FFF2CF42
:100F7000808185FFEDCFCE01C3DFEACFDF91CF9136
:100F80000895EF92FF920F931F93CF93DF93EC019D
:100F900081E0888F9B8D8C8D98131AC0E889F98920
:100FA000808185FF15C09FB7F894EE89FF89608323
:100FB000E889F98980818370806480839FBF81E0A4
:100FC00090E0DF91CF911F910F91FF90EF900895E6
:100FD000F62E0B8D10E00F5F1F4F0F731127E02EC1
:100FE0008C8D8E110BC00FB607FCFACFE889F989FA
:100FF000808185FFF5CFCE0183DFF2CFEB8DEC0F43
:10100000FD2FF11DE35AFF4FF0829FB7F8940B8F2D
:10101000EA89FB8980818062D0CFCF92DF92EF9204
:10102000FF921F93CF93DF93EC016A017B01122F94
:10103000E889F98982E08083C11481EED806E10451
:10104000F10499F060E079E08DE390E0A70196016A
:10105000F5D02150310941095109569547953795E9
:101060002795211580E1380790F0E889F9891082E9
:1010700060E874E88EE190E0A7019601DFD021508E
:101080003109410951095695479537952795EC85C2
:10109000FD853083EE85FF852083188EEC89FD89E0
:1010A0001083EA89FB89808180618083EA89FB89DA
:1010B000808188608083EA89FB8980818068808361
:1010C000EA89FB8980818F7D8083DF91CF911F9199
:1010D000FF90EF90DF90CF9008951F920F920FB680
:1010E0000F9211242F938F939F93EF93FF93E0918F
:1010F000F001F091F1018081E091F601F091F701AA
:1011000082FD1BC090818091F9018F5F8F732091C8
:10111000FA01821741F0E091F901F0E0E052FE4F50
:10112000958F8093F901FF91EF919F918F912F916E
:101130000F900FBE0F901F9018958081F4CF1F92D3
:101140000F920FB60F9211242F933F934F935F93FB
:101150006F937F938F939F93AF93BF93EF93FF937F
:1011600080EE91E0CDDEFF91EF91BF91AF919F9125
:101170008F917F916F915F914F913F912F910F9040
:101180000FBE0F901F901895E0EEF1E013821282CF
:1011900088EE93E0A0E0B0E084839583A683B783D4
:1011A00088E291E09183808385EC90E09587848745
:1011B00084EC90E09787868780EC90E0918B808B21
:1011C00081EC90E0938B828B82EC90E0958B848B0A
:1011D00086EC90E0978B868B118E128E138E148E78
:1011E0000895AF92BF92CF92DF92EF92FF920F934A
:1011F0001F93CF93DF936C017B018B01040F151FAD
:10120000EB015E01AE18BF08C017D10759F0699114
:10121000D601ED91FC910190F081E02DC601099578
:10122000892B79F7C501DF91CF911F910F91FF9025
:10123000EF90DF90CF90BF90AF900895A1E21A2E6B
:10124000AA1BBB1BFD010DC0AA1FBB1FEE1FFF1F6A
:10125000A217B307E407F50720F0A21BB30BE40BBA
:10126000F50B661F771F881F991F1A9469F7609501
:101270007095809590959B01AC01BD01CF010895BB
:10128000EE0FFF1F0590F491E02D0994F894FFCF25
:101290000000000000004C4200004C4200004C42A4
:1012A00046697865645374657044697363726574E4
:1012B0006500360100000000C107F1087107A207B0
:0612C00043075D074F0724
:00000001FF
